{
  "contractName": "Website",
  "abi": [
    {
      "constant": true,
      "inputs": [],
      "name": "file_length",
      "outputs": [
        {
          "name": "",
          "type": "uint256"
        }
      ],
      "payable": false,
      "stateMutability": "view",
      "type": "function"
    },
    {
      "constant": true,
      "inputs": [],
      "name": "website_name",
      "outputs": [
        {
          "name": "",
          "type": "string"
        }
      ],
      "payable": false,
      "stateMutability": "view",
      "type": "function"
    },
    {
      "constant": true,
      "inputs": [],
      "name": "admin",
      "outputs": [
        {
          "name": "",
          "type": "address"
        }
      ],
      "payable": false,
      "stateMutability": "view",
      "type": "function"
    },
    {
      "inputs": [
        {
          "name": "_admin",
          "type": "address"
        },
        {
          "name": "_name",
          "type": "string"
        }
      ],
      "payable": false,
      "stateMutability": "nonpayable",
      "type": "constructor"
    },
    {
      "constant": false,
      "inputs": [
        {
          "name": "_name",
          "type": "string"
        },
        {
          "name": "_hash",
          "type": "string"
        }
      ],
      "name": "addFile",
      "outputs": [],
      "payable": false,
      "stateMutability": "nonpayable",
      "type": "function"
    },
    {
      "constant": false,
      "inputs": [
        {
          "name": "_name",
          "type": "string"
        },
        {
          "name": "_hash",
          "type": "string"
        }
      ],
      "name": "updateFile",
      "outputs": [],
      "payable": false,
      "stateMutability": "nonpayable",
      "type": "function"
    },
    {
      "constant": false,
      "inputs": [
        {
          "name": "_name",
          "type": "string"
        }
      ],
      "name": "deleteFile",
      "outputs": [],
      "payable": false,
      "stateMutability": "nonpayable",
      "type": "function"
    },
    {
      "constant": true,
      "inputs": [
        {
          "name": "_name",
          "type": "string"
        }
      ],
      "name": "getFileHash",
      "outputs": [
        {
          "name": "",
          "type": "string"
        }
      ],
      "payable": false,
      "stateMutability": "view",
      "type": "function"
    },
    {
      "constant": true,
      "inputs": [],
      "name": "getFileLength",
      "outputs": [
        {
          "name": "",
          "type": "uint256"
        }
      ],
      "payable": false,
      "stateMutability": "view",
      "type": "function"
    },
    {
      "constant": true,
      "inputs": [
        {
          "name": "_index",
          "type": "uint256"
        }
      ],
      "name": "getFileName",
      "outputs": [
        {
          "name": "",
          "type": "string"
        }
      ],
      "payable": false,
      "stateMutability": "view",
      "type": "function"
    }
  ],
  "bytecode": "0x6080604052600060065534801561001557600080fd5b5060405162001249380380620012498339810180604052810190808051906020019092919080518201929190505050816000806101000a81548173ffffffffffffffffffffffffffffffffffffffff021916908373ffffffffffffffffffffffffffffffffffffffff160217905550806001908051906020019061009a9291906100a2565b505050610147565b828054600181600116156101000203166002900490600052602060002090601f016020900481019282601f106100e357805160ff1916838001178555610111565b82800160010185558215610111579182015b828111156101105782518255916020019190600101906100f5565b5b50905061011e9190610122565b5090565b61014491905b80821115610140576000816000905550600101610128565b5090565b90565b6110f280620001576000396000f300608060405260043610610099576000357c0100000000000000000000000000000000000000000000000000000000900463ffffffff168063248bfc3b1461009e578063464ed51c1461014d5780639526419a146101fc578063a62ffbc414610227578063a991005414610252578063cbcdc4ab146102bb578063ed7c238d1461034b578063f851a440146103f1578063f880680b14610448575b600080fd5b3480156100aa57600080fd5b5061014b600480360381019080803590602001908201803590602001908080601f0160208091040260200160405190810160405280939291908181526020018383808284378201915050505050509192919290803590602001908201803590602001908080601f016020809104026020016040519081016040528093929190818152602001838380828437820191505050505050919291929050505061052a565b005b34801561015957600080fd5b506101fa600480360381019080803590602001908201803590602001908080601f0160208091040260200160405190810160405280939291908181526020018383808284378201915050505050509192919290803590602001908201803590602001908080601f01602080910402602001604051908101604052809392919081815260200183838082843782019150505050505091929192905050506107d5565b005b34801561020857600080fd5b506102116108b4565b6040518082815260200191505060405180910390f35b34801561023357600080fd5b5061023c6108be565b6040518082815260200191505060405180910390f35b34801561025e57600080fd5b506102b9600480360381019080803590602001908201803590602001908080601f01602080910402602001604051908101604052809392919081815260200183838082843782019150505050505091929192905050506108c4565b005b3480156102c757600080fd5b506102d0610c33565b6040518080602001828103825283818151815260200191508051906020019080838360005b838110156103105780820151818401526020810190506102f5565b50505050905090810190601f16801561033d5780820380516001836020036101000a031916815260200191505b509250505060405180910390f35b34801561035757600080fd5b5061037660048036038101908080359060200190929190505050610cd1565b6040518080602001828103825283818151815260200191508051906020019080838360005b838110156103b657808201518184015260208101905061039b565b50505050905090810190601f1680156103e35780820380516001836020036101000a031916815260200191505b509250505060405180910390f35b3480156103fd57600080fd5b50610406610d9c565b604051808273ffffffffffffffffffffffffffffffffffffffff1673ffffffffffffffffffffffffffffffffffffffff16815260200191505060405180910390f35b34801561045457600080fd5b506104af600480360381019080803590602001908201803590602001908080601f0160208091040260200160405190810160405280939291908181526020018383808284378201915050505050509192919290505050610dc1565b6040518080602001828103825283818151815260200191508051906020019080838360005b838110156104ef5780820151818401526020810190506104d4565b50505050905090810190601f16801561051c5780820380516001836020036101000a031916815260200191505b509250505060405180910390f35b6000809054906101000a900473ffffffffffffffffffffffffffffffffffffffff1673ffffffffffffffffffffffffffffffffffffffff163373ffffffffffffffffffffffffffffffffffffffff1614151561058557600080fd5b6003826040518082805190602001908083835b6020831015156105bd5780518252602082019150602081019050602083039250610598565b6001836020036101000a038019825116818451168082178552505050505050905001915050908152602001604051809103902060009054906101000a900460ff1615151561060a57600080fd5b806002836040518082805190602001908083835b602083101515610643578051825260208201915060208101905060208303925061061e565b6001836020036101000a03801982511681845116808217855250505050505090500191505090815260200160405180910390209080519060200190610689929190610f52565b5060058290806001815401808255809150509060018203906000526020600020016000909192909190915090805190602001906106c7929190610f52565b505060016003836040518082805190602001908083835b60208310151561070357805182526020820191506020810190506020830392506106de565b6001836020036101000a038019825116818451168082178552505050505050905001915050908152602001604051809103902060006101000a81548160ff0219169083151502179055506006546004836040518082805190602001908083835b6020831015156107885780518252602082019150602081019050602083039250610763565b6001836020036101000a0380198251168184511680821785525050505050509050019150509081526020016040518091039020819055506006600081548092919060010191905055505050565b6000809054906101000a900473ffffffffffffffffffffffffffffffffffffffff1673ffffffffffffffffffffffffffffffffffffffff163373ffffffffffffffffffffffffffffffffffffffff1614151561083057600080fd5b806002836040518082805190602001908083835b6020831015156108695780518252602082019150602081019050602083039250610844565b6001836020036101000a038019825116818451168082178552505050505050905001915050908152602001604051809103902090805190602001906108af929190610f52565b505050565b6000600654905090565b60065481565b6000806000809054906101000a900473ffffffffffffffffffffffffffffffffffffffff1673ffffffffffffffffffffffffffffffffffffffff163373ffffffffffffffffffffffffffffffffffffffff1614151561092257600080fd5b6003836040518082805190602001908083835b60208310151561095a5780518252602082019150602081019050602083039250610935565b6001836020036101000a038019825116818451168082178552505050505050905001915050908152602001604051809103902060009054906101000a900460ff1615156109a657600080fd5b60006003846040518082805190602001908083835b6020831015156109e057805182526020820191506020810190506020830392506109bb565b6001836020036101000a038019825116818451168082178552505050505050905001915050908152602001604051809103902060006101000a81548160ff0219169083151502179055506004836040518082805190602001908083835b602083101515610a625780518252602082019150602081019050602083039250610a3d565b6001836020036101000a03801982511681845116808217855250505050505090500191505090815260200160405180910390205491506004836040518082805190602001908083835b602083101515610ad05780518252602082019150602081019050602083039250610aab565b6001836020036101000a0380198251168184511680821785525050505050509050019150509081526020016040518091039020600090556002836040518082805190602001908083835b602083101515610b3f5780518252602082019150602081019050602083039250610b1a565b6001836020036101000a03801982511681845116808217855250505050505090500191505090815260200160405180910390206000610b7e9190610fd2565b8190505b600160065403811015610bf157600560018201815481101515610ba157fe5b90600052602060002001600582815481101515610bba57fe5b906000526020600020019080546001816001161561010002031660029004610be392919061101a565b508080600101915050610b82565b6005600160065403815481101515610c0557fe5b906000526020600020016000610c1b9190610fd2565b60066000815480929190600190039190505550505050565b60018054600181600116156101000203166002900480601f016020809104026020016040519081016040528092919081815260200182805460018160011615610100020316600290048015610cc95780601f10610c9e57610100808354040283529160200191610cc9565b820191906000526020600020905b815481529060010190602001808311610cac57829003601f168201915b505050505081565b606060065482101515610ce357600080fd5b600582815481101515610cf257fe5b906000526020600020018054600181600116156101000203166002900480601f016020809104026020016040519081016040528092919081815260200182805460018160011615610100020316600290048015610d905780601f10610d6557610100808354040283529160200191610d90565b820191906000526020600020905b815481529060010190602001808311610d7357829003601f168201915b50505050509050919050565b6000809054906101000a900473ffffffffffffffffffffffffffffffffffffffff1681565b60606003826040518082805190602001908083835b602083101515610dfb5780518252602082019150602081019050602083039250610dd6565b6001836020036101000a038019825116818451168082178552505050505050905001915050908152602001604051809103902060009054906101000a900460ff161515610e4757600080fd5b6002826040518082805190602001908083835b602083101515610e7f5780518252602082019150602081019050602083039250610e5a565b6001836020036101000a03801982511681845116808217855250505050505090500191505090815260200160405180910390208054600181600116156101000203166002900480601f016020809104026020016040519081016040528092919081815260200182805460018160011615610100020316600290048015610f465780601f10610f1b57610100808354040283529160200191610f46565b820191906000526020600020905b815481529060010190602001808311610f2957829003601f168201915b50505050509050919050565b828054600181600116156101000203166002900490600052602060002090601f016020900481019282601f10610f9357805160ff1916838001178555610fc1565b82800160010185558215610fc1579182015b82811115610fc0578251825591602001919060010190610fa5565b5b509050610fce91906110a1565b5090565b50805460018160011615610100020316600290046000825580601f10610ff85750611017565b601f01602090049060005260206000209081019061101691906110a1565b5b50565b828054600181600116156101000203166002900490600052602060002090601f016020900481019282601f106110535780548555611090565b8280016001018555821561109057600052602060002091601f016020900482015b8281111561108f578254825591600101919060010190611074565b5b50905061109d91906110a1565b5090565b6110c391905b808211156110bf5760008160009055506001016110a7565b5090565b905600a165627a7a72305820ff34408718cfba0ea8b469e4a33f95f099707b534c72925248c5ed87633ef5360029",
  "source": "pragma solidity ^0.4.19;\r\n\r\n/**\r\n * The Website contract\r\n */\r\ncontract Website {\r\n\r\n    address public admin;\r\n    string public website_name;\r\n\r\n    // (Filename => IPFS Hash)\r\n    mapping (string => string) file;\r\n\r\n    mapping (string => bool) is_file_name_acquired;\r\n    mapping (string => uint) file_index;\r\n    string[] file_name;\r\n    uint public file_length = 0;\r\n\r\n    modifier restricted() { \r\n    \trequire (msg.sender == admin); \r\n    \t_; \r\n    }\r\n    \r\n\tfunction Website (address _admin, string _name) {\r\n\t\tadmin = _admin;\r\n\t\twebsite_name = _name;\r\n\t}\t\r\n\r\n\tfunction addFile(string _name, string _hash) public restricted {\r\n\t\trequire(!is_file_name_acquired[_name]);\r\n\t\tfile[_name] = _hash;\r\n\t\tfile_name.push(_name);\r\n\t\tis_file_name_acquired[_name] = true;\r\n\t\tfile_index[_name] = file_length;\r\n\t\tfile_length++;\r\n\t}\r\n\r\n\tfunction updateFile(string _name, string _hash) public restricted {\r\n\t\tfile[_name] = _hash;\r\n\t}\r\n\r\n\tfunction deleteFile(string _name) public restricted {\r\n\t\trequire(is_file_name_acquired[_name]);\r\n\t\tis_file_name_acquired[_name] = false;\r\n\t\tuint index = file_index[_name];\r\n\t\tdelete file_index[_name];\r\n\t\tdelete file[_name];\r\n\t\tfor(uint i=index; i<file_length-1;i++) {\r\n\t\t\tfile_name[i] = file_name[i+1];\r\n\t\t}\r\n\t\tdelete file_name[file_length-1];\r\n\t\tfile_length--;\r\n\t}\r\n\r\n\t// Views\r\n\r\n\tfunction getFileHash(string _name) public view returns(string) {\r\n\t\trequire(is_file_name_acquired[_name]);\r\n\t\treturn file[_name];\r\n\t}\r\n\r\n\tfunction getFileLength() public view returns(uint) {\r\n\t\treturn file_length;\r\n\t}\r\n\r\n\tfunction getFileName(uint _index) public view returns (string) {\r\n        require(_index < file_length);\r\n\t\treturn file_name[_index];\r\n\t}\r\n}\r\n\r\n\r\n",
  "sourcePath": "/mnt/e/code/bchosting/contracts/Website.sol",
  "compiler": {
    "name": "solc",
    "version": "0.4.24+commit.e67f0147.Emscripten.clang"
  },
  "schemaVersion": "2.0.1",
  "updatedAt": "2018-10-08T17:13:47.645Z"
}